{
  "contractName": "Simple2",
  "abi": [
    {
      "inputs": [
        {
          "internalType": "uint256",
          "name": "newValue",
          "type": "uint256"
        }
      ],
      "name": "set",
      "outputs": [],
      "stateMutability": "nonpayable",
      "type": "function"
    },
    {
      "inputs": [],
      "name": "increment",
      "outputs": [],
      "stateMutability": "nonpayable",
      "type": "function"
    },
    {
      "inputs": [],
      "name": "get",
      "outputs": [
        {
          "internalType": "uint256",
          "name": "",
          "type": "uint256"
        }
      ],
      "stateMutability": "view",
      "type": "function",
      "constant": true
    }
  ],
  "bytecode": "0x608060405234801561001057600080fd5b506101f5806100206000396000f3fe608060405234801561001057600080fd5b50600436106100415760003560e01c806360fe47b1146100465780636d4ce63c14610062578063d09de08a14610080575b600080fd5b610060600480360381019061005b91906100f1565b61008a565b005b61006a610094565b604051610077919061012d565b60405180910390f35b61008861009d565b005b8060008190555050565b60008054905090565b6000808154809291906100af90610177565b9190505550565b600080fd5b6000819050919050565b6100ce816100bb565b81146100d957600080fd5b50565b6000813590506100eb816100c5565b92915050565b600060208284031215610107576101066100b6565b5b6000610115848285016100dc565b91505092915050565b610127816100bb565b82525050565b6000602082019050610142600083018461011e565b92915050565b7f4e487b7100000000000000000000000000000000000000000000000000000000600052601160045260246000fd5b6000610182826100bb565b91507fffffffffffffffffffffffffffffffffffffffffffffffffffffffffffffffff82036101b4576101b3610148565b5b60018201905091905056fea26469706673582212205016abe93dfa4a881aff86af87e81c252c606d6d7b3cd3dc664079fc4214acbc64736f6c634300080e0033",
  "immutableReferences": {},
  "source": "// SPDX-License-Identifier: GPL-3.0\n\npragma solidity >=0.4.22 <0.9.0;\n\n//Declares a new contract\ncontract Simple2 {\n    //Storage. Persists in between transactions\n    uint x;\n\n    //Allows the unsigned integer stored to be changed\n    function set(uint newValue) public {\n        x = newValue;\n    }\n\n    function increment() public {\n        x++;\n    }\n    \n    //Returns the currently stored unsigned integer\n    function get() public view returns (uint) {\n        return x;\n    }\n}\n",
  "sourcePath": "/home/jb/Projets/Alyra/Exercices/ContratUppgrade/contracts/Simple2.sol",
  "compiler": {
    "name": "solc",
    "version": "0.8.14+commit.80d49f37.Emscripten.clang"
  },
  "schemaVersion": "3.4.7",
  "updatedAt": "2022-07-28T18:20:40.555Z",
  "networkType": "ethereum",
  "devdoc": {
    "kind": "dev",
    "methods": {},
    "version": 1
  },
  "userdoc": {
    "kind": "user",
    "methods": {},
    "version": 1
  }
}