{
  "contractName": "SimpleStorage",
  "abi": [
    {
      "inputs": [],
      "name": "Classe",
      "outputs": [
        {
          "internalType": "enum SimpleStorage.classe",
          "name": "",
          "type": "uint8"
        }
      ],
      "stateMutability": "view",
      "type": "function",
      "constant": true
    },
    {
      "inputs": [
        {
          "internalType": "uint256",
          "name": "",
          "type": "uint256"
        }
      ],
      "name": "EtudiantsArray",
      "outputs": [
        {
          "internalType": "string",
          "name": "name",
          "type": "string"
        },
        {
          "internalType": "uint256",
          "name": "note",
          "type": "uint256"
        }
      ],
      "stateMutability": "view",
      "type": "function",
      "constant": true
    },
    {
      "inputs": [
        {
          "internalType": "address",
          "name": "",
          "type": "address"
        }
      ],
      "name": "EtudiantsMap",
      "outputs": [
        {
          "internalType": "string",
          "name": "name",
          "type": "string"
        },
        {
          "internalType": "uint256",
          "name": "note",
          "type": "uint256"
        }
      ],
      "stateMutability": "view",
      "type": "function",
      "constant": true
    },
    {
      "inputs": [
        {
          "internalType": "address",
          "name": "_addr",
          "type": "address"
        },
        {
          "internalType": "string",
          "name": "_name",
          "type": "string"
        },
        {
          "internalType": "uint256",
          "name": "_note",
          "type": "uint256"
        }
      ],
      "name": "setetudiant",
      "outputs": [],
      "stateMutability": "nonpayable",
      "type": "function"
    },
    {
      "inputs": [
        {
          "internalType": "address",
          "name": "_addr",
          "type": "address"
        }
      ],
      "name": "deletetudiant",
      "outputs": [],
      "stateMutability": "nonpayable",
      "type": "function"
    },
    {
      "inputs": [
        {
          "internalType": "uint256",
          "name": "_classe",
          "type": "uint256"
        }
      ],
      "name": "setenum",
      "outputs": [],
      "stateMutability": "nonpayable",
      "type": "function"
    }
  ],
  "bytecode": "0x608060405234801561001057600080fd5b50610950806100206000396000f3fe608060405234801561001057600080fd5b50600436106100625760003560e01c806309187bc71461006757806382750d0414610098578063933dedac146100b45780639603aaa5146100d05780639e71f40914610101578063a6f2a1fb1461011d575b600080fd5b610081600480360381019061007c919061051c565b61013b565b60405161008f9291906105fb565b60405180910390f35b6100b260048036038101906100ad919061051c565b6101e7565b005b6100ce60048036038101906100c99190610657565b610277565b005b6100ea60048036038101906100e59190610657565b6102b6565b6040516100f89291906105fb565b60405180910390f35b61011b600480360381019061011691906107b9565b610372565b005b6101256103f4565b604051610132919061089f565b60405180910390f35b600060205280600052604060002060009150905080600001805461015e906108e9565b80601f016020809104026020016040519081016040528092919081815260200182805461018a906108e9565b80156101d75780601f106101ac576101008083540402835291602001916101d7565b820191906000526020600020905b8154815290600101906020018083116101ba57829003601f168201915b5050505050908060010154905082565b604051806040016040528060405180602001604052806000815250815260200160008152506000808373ffffffffffffffffffffffffffffffffffffffff1673ffffffffffffffffffffffffffffffffffffffff1681526020019081526020016000206000820151816000019080519060200190610266929190610407565b506020820151816001015590505050565b80600281111561028a57610289610828565b5b600260006101000a81548160ff021916908360028111156102ae576102ad610828565b5b021790555050565b600181815481106102c657600080fd5b90600052602060002090600202016000915090508060000180546102e9906108e9565b80601f0160208091040260200160405190810160405280929190818152602001828054610315906108e9565b80156103625780601f1061033757610100808354040283529160200191610362565b820191906000526020600020905b81548152906001019060200180831161034557829003601f168201915b5050505050908060010154905082565b6040518060400160405280838152602001828152506000808573ffffffffffffffffffffffffffffffffffffffff1673ffffffffffffffffffffffffffffffffffffffff16815260200190815260200160002060008201518160000190805190602001906103e1929190610407565b5060208201518160010155905050505050565b600260009054906101000a900460ff1681565b828054610413906108e9565b90600052602060002090601f016020900481019282610435576000855561047c565b82601f1061044e57805160ff191683800117855561047c565b8280016001018555821561047c579182015b8281111561047b578251825591602001919060010190610460565b5b509050610489919061048d565b5090565b5b808211156104a657600081600090555060010161048e565b5090565b6000604051905090565b600080fd5b600080fd5b600073ffffffffffffffffffffffffffffffffffffffff82169050919050565b60006104e9826104be565b9050919050565b6104f9816104de565b811461050457600080fd5b50565b600081359050610516816104f0565b92915050565b600060208284031215610532576105316104b4565b5b600061054084828501610507565b91505092915050565b600081519050919050565b600082825260208201905092915050565b60005b83811015610583578082015181840152602081019050610568565b83811115610592576000848401525b50505050565b6000601f19601f8301169050919050565b60006105b482610549565b6105be8185610554565b93506105ce818560208601610565565b6105d781610598565b840191505092915050565b6000819050919050565b6105f5816105e2565b82525050565b6000604082019050818103600083015261061581856105a9565b905061062460208301846105ec565b9392505050565b610634816105e2565b811461063f57600080fd5b50565b6000813590506106518161062b565b92915050565b60006020828403121561066d5761066c6104b4565b5b600061067b84828501610642565b91505092915050565b600080fd5b600080fd5b7f4e487b7100000000000000000000000000000000000000000000000000000000600052604160045260246000fd5b6106c682610598565b810181811067ffffffffffffffff821117156106e5576106e461068e565b5b80604052505050565b60006106f86104aa565b905061070482826106bd565b919050565b600067ffffffffffffffff8211156107245761072361068e565b5b61072d82610598565b9050602081019050919050565b82818337600083830152505050565b600061075c61075784610709565b6106ee565b90508281526020810184848401111561077857610777610689565b5b61078384828561073a565b509392505050565b600082601f8301126107a05761079f610684565b5b81356107b0848260208601610749565b91505092915050565b6000806000606084860312156107d2576107d16104b4565b5b60006107e086828701610507565b935050602084013567ffffffffffffffff811115610801576108006104b9565b5b61080d8682870161078b565b925050604061081e86828701610642565b9150509250925092565b7f4e487b7100000000000000000000000000000000000000000000000000000000600052602160045260246000fd5b6003811061086857610867610828565b5b50565b600081905061087982610857565b919050565b60006108898261086b565b9050919050565b6108998161087e565b82525050565b60006020820190506108b46000830184610890565b92915050565b7f4e487b7100000000000000000000000000000000000000000000000000000000600052602260045260246000fd5b6000600282049050600182168061090157607f821691505b602082108103610914576109136108ba565b5b5091905056fea264697066735822122076213c03e1de7d7a4827622d9ea3885649fa0eb80b9b94fdbdc62c33f62c282064736f6c634300080d0033",
  "immutableReferences": {},
  "source": "// SPDX-License-Identifier: MIT\npragma solidity >=0.4.22 <0.9.0;\n\ncontract SimpleStorage {\n  struct Etudiant {\n    string name;\n    uint note;\n  }\n\n  mapping (address=>Etudiant) public EtudiantsMap;\n  Etudiant[] public EtudiantsArray;\n\n  enum classe {\n    sixieme,\n    cinquieme,\n    quatrieme\n  }\n\n  classe public Classe;\n\n    function setetudiant(address _addr, string memory _name, uint _note) public {\n        EtudiantsMap[_addr]=Etudiant(_name, _note);\n    }\n\n    function deletetudiant(address _addr) public {\n        EtudiantsMap[_addr]=Etudiant('', 0);\n    }\n\n    function setenum (uint _classe) public {\n      Classe=classe(_classe);\n    }\n\n}\n",
  "sourcePath": "/home/jb/Projets/Alyra/Exercices/Etudiant/contracts/SimpleStorage.sol",
  "compiler": {
    "name": "solc",
    "version": "0.8.13+commit.abaa5c0e.Emscripten.clang"
  },
  "schemaVersion": "3.4.7",
  "updatedAt": "2022-06-22T17:38:36.596Z",
  "networkType": "ethereum",
  "devdoc": {
    "kind": "dev",
    "methods": {},
    "version": 1
  },
  "userdoc": {
    "kind": "user",
    "methods": {},
    "version": 1
  }
}