{
  "contractName": "Voting",
  "abi": [
    {
      "anonymous": false,
      "inputs": [
        {
          "indexed": true,
          "internalType": "address",
          "name": "previousOwner",
          "type": "address"
        },
        {
          "indexed": true,
          "internalType": "address",
          "name": "newOwner",
          "type": "address"
        }
      ],
      "name": "OwnershipTransferred",
      "type": "event"
    },
    {
      "anonymous": false,
      "inputs": [
        {
          "indexed": false,
          "internalType": "uint256",
          "name": "proposalId",
          "type": "uint256"
        }
      ],
      "name": "ProposalRegistered",
      "type": "event"
    },
    {
      "anonymous": false,
      "inputs": [
        {
          "indexed": false,
          "internalType": "address",
          "name": "voter",
          "type": "address"
        },
        {
          "indexed": false,
          "internalType": "uint256",
          "name": "proposalId",
          "type": "uint256"
        }
      ],
      "name": "Voted",
      "type": "event"
    },
    {
      "anonymous": false,
      "inputs": [
        {
          "indexed": false,
          "internalType": "address",
          "name": "voterAddress",
          "type": "address"
        }
      ],
      "name": "VoterRegistered",
      "type": "event"
    },
    {
      "anonymous": false,
      "inputs": [
        {
          "indexed": false,
          "internalType": "enum Voting.WorkflowStatus",
          "name": "previousStatus",
          "type": "uint8"
        },
        {
          "indexed": false,
          "internalType": "enum Voting.WorkflowStatus",
          "name": "newStatus",
          "type": "uint8"
        }
      ],
      "name": "WorkflowStatusChange",
      "type": "event"
    },
    {
      "inputs": [],
      "name": "owner",
      "outputs": [
        {
          "internalType": "address",
          "name": "",
          "type": "address"
        }
      ],
      "stateMutability": "view",
      "type": "function",
      "constant": true
    },
    {
      "inputs": [],
      "name": "renounceOwnership",
      "outputs": [],
      "stateMutability": "nonpayable",
      "type": "function"
    },
    {
      "inputs": [
        {
          "internalType": "address",
          "name": "newOwner",
          "type": "address"
        }
      ],
      "name": "transferOwnership",
      "outputs": [],
      "stateMutability": "nonpayable",
      "type": "function"
    },
    {
      "inputs": [],
      "name": "winningProposalID",
      "outputs": [
        {
          "internalType": "uint256",
          "name": "",
          "type": "uint256"
        }
      ],
      "stateMutability": "view",
      "type": "function",
      "constant": true
    },
    {
      "inputs": [],
      "name": "workflowStatus",
      "outputs": [
        {
          "internalType": "enum Voting.WorkflowStatus",
          "name": "",
          "type": "uint8"
        }
      ],
      "stateMutability": "view",
      "type": "function",
      "constant": true
    },
    {
      "inputs": [
        {
          "internalType": "address",
          "name": "_addr",
          "type": "address"
        }
      ],
      "name": "getVoter",
      "outputs": [
        {
          "components": [
            {
              "internalType": "bool",
              "name": "isRegistered",
              "type": "bool"
            },
            {
              "internalType": "bool",
              "name": "hasVoted",
              "type": "bool"
            },
            {
              "internalType": "uint256",
              "name": "votedProposalId",
              "type": "uint256"
            }
          ],
          "internalType": "struct Voting.Voter",
          "name": "",
          "type": "tuple"
        }
      ],
      "stateMutability": "view",
      "type": "function",
      "constant": true
    },
    {
      "inputs": [
        {
          "internalType": "uint256",
          "name": "_id",
          "type": "uint256"
        }
      ],
      "name": "getOneProposal",
      "outputs": [
        {
          "components": [
            {
              "internalType": "string",
              "name": "description",
              "type": "string"
            },
            {
              "internalType": "uint256",
              "name": "voteCount",
              "type": "uint256"
            }
          ],
          "internalType": "struct Voting.Proposal",
          "name": "",
          "type": "tuple"
        }
      ],
      "stateMutability": "view",
      "type": "function",
      "constant": true
    },
    {
      "inputs": [
        {
          "internalType": "address",
          "name": "_addr",
          "type": "address"
        }
      ],
      "name": "addVoter",
      "outputs": [],
      "stateMutability": "nonpayable",
      "type": "function"
    },
    {
      "inputs": [
        {
          "internalType": "string",
          "name": "_desc",
          "type": "string"
        }
      ],
      "name": "addProposal",
      "outputs": [],
      "stateMutability": "nonpayable",
      "type": "function"
    },
    {
      "inputs": [
        {
          "internalType": "uint256",
          "name": "_id",
          "type": "uint256"
        }
      ],
      "name": "setVote",
      "outputs": [],
      "stateMutability": "nonpayable",
      "type": "function"
    },
    {
      "inputs": [],
      "name": "changeState",
      "outputs": [],
      "stateMutability": "nonpayable",
      "type": "function"
    },
    {
      "inputs": [],
      "name": "tallyVotes",
      "outputs": [],
      "stateMutability": "nonpayable",
      "type": "function"
    }
  ],
  "bytecode": "0x608060405234801561001057600080fd5b5061002d61002261003260201b60201c565b61003a60201b60201c565b6100fe565b600033905090565b60008060009054906101000a900473ffffffffffffffffffffffffffffffffffffffff169050816000806101000a81548173ffffffffffffffffffffffffffffffffffffffff021916908373ffffffffffffffffffffffffffffffffffffffff1602179055508173ffffffffffffffffffffffffffffffffffffffff168173ffffffffffffffffffffffffffffffffffffffff167f8be0079c531659141344cd1fd0a4f28419497f9722a3daafe3b4186f6b6457e060405160405180910390a35050565b611f828061010d6000396000f3fe608060405234801561001057600080fd5b50600436106100b45760003560e01c8063a1edffa211610071578063a1edffa21461012d578063a2788cce1461014b578063bdc014311461017b578063d4f50f9814610199578063f2fde38b146101c9578063f4ab9adf146101e5576100b4565b8063230796ae146100b95780632fdae3c5146100d5578063378a2178146100f1578063715018a6146100fb5780638412e667146101055780638da5cb5b1461010f575b600080fd5b6100d360048036038101906100ce919061124f565b610201565b005b6100ef60048036038101906100ea91906113c2565b6104fc565b005b6100f9610787565b005b61010361088e565b005b61010d6108a2565b005b610117610adc565b604051610124919061144c565b60405180910390f35b610135610b05565b60405161014291906114de565b60405180910390f35b6101656004803603810190610160919061124f565b610b18565b60405161017291906115cd565b60405180910390f35b610183610c7f565b60405161019091906115fe565b60405180910390f35b6101b360048036038101906101ae9190611645565b610c85565b6040516101c091906116cf565b60405180910390f35b6101e360048036038101906101de9190611645565b610dad565b005b6101ff60048036038101906101fa9190611645565b610e30565b005b600460003373ffffffffffffffffffffffffffffffffffffffff1673ffffffffffffffffffffffffffffffffffffffff16815260200190815260200160002060000160009054906101000a900460ff16610290576040517f08c379a000000000000000000000000000000000000000000000000000000000815260040161028790611747565b60405180910390fd5b600360058111156102a4576102a3611467565b5b600260009054906101000a900460ff1660058111156102c6576102c5611467565b5b14610306576040517f08c379a00000000000000000000000000000000000000000000000000000000081526004016102fd906117d9565b60405180910390fd5b60011515600460003373ffffffffffffffffffffffffffffffffffffffff1673ffffffffffffffffffffffffffffffffffffffff16815260200190815260200160002060000160019054906101000a900460ff1615150361039c576040517f08c379a000000000000000000000000000000000000000000000000000000000815260040161039390611845565b60405180910390fd5b60038054905081106103e3576040517f08c379a00000000000000000000000000000000000000000000000000000000081526004016103da906118b1565b60405180910390fd5b80600460003373ffffffffffffffffffffffffffffffffffffffff1673ffffffffffffffffffffffffffffffffffffffff168152602001908152602001600020600101819055506001600460003373ffffffffffffffffffffffffffffffffffffffff1673ffffffffffffffffffffffffffffffffffffffff16815260200190815260200160002060000160016101000a81548160ff02191690831515021790555060038181548110610499576104986118d1565b5b906000526020600020906002020160010160008154809291906104bb9061192f565b91905055507f4d99b957a2bc29a30ebd96a7be8e68fe50a3c701db28a91436490b7d53870ca433826040516104f1929190611977565b60405180910390a150565b600460003373ffffffffffffffffffffffffffffffffffffffff1673ffffffffffffffffffffffffffffffffffffffff16815260200190815260200160002060000160009054906101000a900460ff1661058b576040517f08c379a000000000000000000000000000000000000000000000000000000000815260040161058290611747565b60405180910390fd5b6001600581111561059f5761059e611467565b5b600260009054906101000a900460ff1660058111156105c1576105c0611467565b5b14610601576040517f08c379a00000000000000000000000000000000000000000000000000000000081526004016105f8906119ec565b60405180910390fd5b60405160200161061090611a32565b60405160208183030381529060405280519060200120816040516020016106379190611a8b565b604051602081830303815290604052805190602001200361068d576040517f08c379a000000000000000000000000000000000000000000000000000000000815260040161068490611b1f565b60405180910390fd5b6064600380549050106106d5576040517f08c379a00000000000000000000000000000000000000000000000000000000081526004016106cc90611b8b565b60405180910390fd5b6106dd611123565b8181600001819052506003819080600181540180825580915050600190039060005260206000209060020201600090919091909150600082015181600001908051906020019061072e92919061113d565b506020820151816001015550507f92e393e9b54e2f801d3ea4beb0c5e71a21cc34a5d34b77d0fb8a3aa1650dc18f600160038054905061076e9190611bab565b60405161077b91906115fe565b60405180910390a15050565b61078f610fd9565b600460058111156107a3576107a2611467565b5b600260009054906101000a900460ff1660058111156107c5576107c4611467565b5b14610805576040517f08c379a00000000000000000000000000000000000000000000000000000000081526004016107fc90611c51565b60405180910390fd5b600080600090505b600380549050811015610883576003828154811061082e5761082d6118d1565b5b90600052602060002090600202016001015460038281548110610854576108536118d1565b5b9060005260206000209060020201600101541115610870578091505b808061087b9061192f565b91505061080d565b508060018190555050565b610896610fd9565b6108a06000611057565b565b6108aa610fd9565b6005808111156108bd576108bc611467565b5b600260009054906101000a900460ff1660058111156108df576108de611467565b5b0361092657600060058111156108f8576108f7611467565b5b600260006101000a81548160ff0219169083600581111561091c5761091b611467565b5b0217905550610990565b6001600260009054906101000a900460ff16600581111561094a57610949611467565b5b6109549190611c71565b600581111561096657610965611467565b5b600260006101000a81548160ff0219169083600581111561098a57610989611467565b5b02179055505b600060058111156109a4576109a3611467565b5b600260009054906101000a900460ff1660058111156109c6576109c5611467565b5b03610a2e577f0a97a4ee45751e2abf3e4fc8946939630b11b371ea8ae39ccdc3056e98f5cc3f6005808111156109ff576109fe611467565b5b60006005811115610a1357610a12611467565b5b604051610a21929190611cc7565b60405180910390a1610ada565b7f0a97a4ee45751e2abf3e4fc8946939630b11b371ea8ae39ccdc3056e98f5cc3f6001600260009054906101000a900460ff166005811115610a7357610a72611467565b5b610a7d9190611bab565b6005811115610a8f57610a8e611467565b5b600260009054906101000a900460ff166005811115610ab157610ab0611467565b5b6005811115610ac357610ac2611467565b5b604051610ad1929190611cc7565b60405180910390a15b565b60008060009054906101000a900473ffffffffffffffffffffffffffffffffffffffff16905090565b600260009054906101000a900460ff1681565b610b20611123565b600460003373ffffffffffffffffffffffffffffffffffffffff1673ffffffffffffffffffffffffffffffffffffffff16815260200190815260200160002060000160009054906101000a900460ff16610baf576040517f08c379a0000000000000000000000000000000000000000000000000000000008152600401610ba690611747565b60405180910390fd5b60038281548110610bc357610bc26118d1565b5b9060005260206000209060020201604051806040016040529081600082018054610bec90611d1f565b80601f0160208091040260200160405190810160405280929190818152602001828054610c1890611d1f565b8015610c655780601f10610c3a57610100808354040283529160200191610c65565b820191906000526020600020905b815481529060010190602001808311610c4857829003601f168201915b505050505081526020016001820154815250509050919050565b60015481565b610c8d6111c3565b600460003373ffffffffffffffffffffffffffffffffffffffff1673ffffffffffffffffffffffffffffffffffffffff16815260200190815260200160002060000160009054906101000a900460ff16610d1c576040517f08c379a0000000000000000000000000000000000000000000000000000000008152600401610d1390611747565b60405180910390fd5b600460008373ffffffffffffffffffffffffffffffffffffffff1673ffffffffffffffffffffffffffffffffffffffff1681526020019081526020016000206040518060600160405290816000820160009054906101000a900460ff161515151581526020016000820160019054906101000a900460ff161515151581526020016001820154815250509050919050565b610db5610fd9565b600073ffffffffffffffffffffffffffffffffffffffff168173ffffffffffffffffffffffffffffffffffffffff1603610e24576040517f08c379a0000000000000000000000000000000000000000000000000000000008152600401610e1b90611dc2565b60405180910390fd5b610e2d81611057565b50565b610e38610fd9565b60006005811115610e4c57610e4b611467565b5b600260009054906101000a900460ff166005811115610e6e57610e6d611467565b5b14610eae576040517f08c379a0000000000000000000000000000000000000000000000000000000008152600401610ea590611e54565b60405180910390fd5b60011515600460008373ffffffffffffffffffffffffffffffffffffffff1673ffffffffffffffffffffffffffffffffffffffff16815260200190815260200160002060000160009054906101000a900460ff16151503610f44576040517f08c379a0000000000000000000000000000000000000000000000000000000008152600401610f3b90611ec0565b60405180910390fd5b6001600460008373ffffffffffffffffffffffffffffffffffffffff1673ffffffffffffffffffffffffffffffffffffffff16815260200190815260200160002060000160006101000a81548160ff0219169083151502179055507fb6be2187d059cc2a55fe29e0e503b566e1e0f8c8780096e185429350acffd3dd81604051610fce919061144c565b60405180910390a150565b610fe161111b565b73ffffffffffffffffffffffffffffffffffffffff16610fff610adc565b73ffffffffffffffffffffffffffffffffffffffff1614611055576040517f08c379a000000000000000000000000000000000000000000000000000000000815260040161104c90611f2c565b60405180910390fd5b565b60008060009054906101000a900473ffffffffffffffffffffffffffffffffffffffff169050816000806101000a81548173ffffffffffffffffffffffffffffffffffffffff021916908373ffffffffffffffffffffffffffffffffffffffff1602179055508173ffffffffffffffffffffffffffffffffffffffff168173ffffffffffffffffffffffffffffffffffffffff167f8be0079c531659141344cd1fd0a4f28419497f9722a3daafe3b4186f6b6457e060405160405180910390a35050565b600033905090565b604051806040016040528060608152602001600081525090565b82805461114990611d1f565b90600052602060002090601f01602090048101928261116b57600085556111b2565b82601f1061118457805160ff19168380011785556111b2565b828001600101855582156111b2579182015b828111156111b1578251825591602001919060010190611196565b5b5090506111bf91906111e8565b5090565b6040518060600160405280600015158152602001600015158152602001600081525090565b5b808211156112015760008160009055506001016111e9565b5090565b6000604051905090565b600080fd5b600080fd5b6000819050919050565b61122c81611219565b811461123757600080fd5b50565b60008135905061124981611223565b92915050565b6000602082840312156112655761126461120f565b5b60006112738482850161123a565b91505092915050565b600080fd5b600080fd5b6000601f19601f8301169050919050565b7f4e487b7100000000000000000000000000000000000000000000000000000000600052604160045260246000fd5b6112cf82611286565b810181811067ffffffffffffffff821117156112ee576112ed611297565b5b80604052505050565b6000611301611205565b905061130d82826112c6565b919050565b600067ffffffffffffffff82111561132d5761132c611297565b5b61133682611286565b9050602081019050919050565b82818337600083830152505050565b600061136561136084611312565b6112f7565b90508281526020810184848401111561138157611380611281565b5b61138c848285611343565b509392505050565b600082601f8301126113a9576113a861127c565b5b81356113b9848260208601611352565b91505092915050565b6000602082840312156113d8576113d761120f565b5b600082013567ffffffffffffffff8111156113f6576113f5611214565b5b61140284828501611394565b91505092915050565b600073ffffffffffffffffffffffffffffffffffffffff82169050919050565b60006114368261140b565b9050919050565b6114468161142b565b82525050565b6000602082019050611461600083018461143d565b92915050565b7f4e487b7100000000000000000000000000000000000000000000000000000000600052602160045260246000fd5b600681106114a7576114a6611467565b5b50565b60008190506114b882611496565b919050565b60006114c8826114aa565b9050919050565b6114d8816114bd565b82525050565b60006020820190506114f360008301846114cf565b92915050565b600081519050919050565b600082825260208201905092915050565b60005b83811015611533578082015181840152602081019050611518565b83811115611542576000848401525b50505050565b6000611553826114f9565b61155d8185611504565b935061156d818560208601611515565b61157681611286565b840191505092915050565b61158a81611219565b82525050565b600060408301600083015184820360008601526115ad8282611548565b91505060208301516115c26020860182611581565b508091505092915050565b600060208201905081810360008301526115e78184611590565b905092915050565b6115f881611219565b82525050565b600060208201905061161360008301846115ef565b92915050565b6116228161142b565b811461162d57600080fd5b50565b60008135905061163f81611619565b92915050565b60006020828403121561165b5761165a61120f565b5b600061166984828501611630565b91505092915050565b60008115159050919050565b61168781611672565b82525050565b6060820160008201516116a3600085018261167e565b5060208201516116b6602085018261167e565b5060408201516116c96040850182611581565b50505050565b60006060820190506116e4600083018461168d565b92915050565b600082825260208201905092915050565b7f596f75277265206e6f74206120766f7465720000000000000000000000000000600082015250565b60006117316012836116ea565b915061173c826116fb565b602082019050919050565b6000602082019050818103600083015261176081611724565b9050919050565b7f566f74696e672073657373696f6e20686176656e74207374617274656420796560008201527f7400000000000000000000000000000000000000000000000000000000000000602082015250565b60006117c36021836116ea565b91506117ce82611767565b604082019050919050565b600060208201905081810360008301526117f2816117b6565b9050919050565b7f596f75206861766520616c726561647920766f74656400000000000000000000600082015250565b600061182f6016836116ea565b915061183a826117f9565b602082019050919050565b6000602082019050818103600083015261185e81611822565b9050919050565b7f50726f706f73616c206e6f7420666f756e640000000000000000000000000000600082015250565b600061189b6012836116ea565b91506118a682611865565b602082019050919050565b600060208201905081810360008301526118ca8161188e565b9050919050565b7f4e487b7100000000000000000000000000000000000000000000000000000000600052603260045260246000fd5b7f4e487b7100000000000000000000000000000000000000000000000000000000600052601160045260246000fd5b600061193a82611219565b91507fffffffffffffffffffffffffffffffffffffffffffffffffffffffffffffffff820361196c5761196b611900565b5b600182019050919050565b600060408201905061198c600083018561143d565b61199960208301846115ef565b9392505050565b7f50726f706f73616c7320617265206e6f7420616c6c6f77656420796574000000600082015250565b60006119d6601d836116ea565b91506119e1826119a0565b602082019050919050565b60006020820190508181036000830152611a05816119c9565b9050919050565b50565b6000611a1c6000836116ea565b9150611a2782611a0c565b600082019050919050565b60006020820190508181036000830152611a4b81611a0f565b9050919050565b6000611a5d826114f9565b611a6781856116ea565b9350611a77818560208601611515565b611a8081611286565b840191505092915050565b60006020820190508181036000830152611aa58184611a52565b905092915050565b7f566f7573206e6520706f7576657a20706173206e65207269656e2070726f706f60008201527f7365720000000000000000000000000000000000000000000000000000000000602082015250565b6000611b096023836116ea565b9150611b1482611aad565b604082019050919050565b60006020820190508181036000830152611b3881611afc565b9050919050565b7f50726f706f73616c277320417272617920697320636f6d706c65746500000000600082015250565b6000611b75601c836116ea565b9150611b8082611b3f565b602082019050919050565b60006020820190508181036000830152611ba481611b68565b9050919050565b6000611bb682611219565b9150611bc183611219565b925082821015611bd457611bd3611900565b5b828203905092915050565b7f43757272656e7420737461747573206973206e6f7420766f74696e672073657360008201527f73696f6e20656e64656400000000000000000000000000000000000000000000602082015250565b6000611c3b602a836116ea565b9150611c4682611bdf565b604082019050919050565b60006020820190508181036000830152611c6a81611c2e565b9050919050565b6000611c7c82611219565b9150611c8783611219565b9250827fffffffffffffffffffffffffffffffffffffffffffffffffffffffffffffffff03821115611cbc57611cbb611900565b5b828201905092915050565b6000604082019050611cdc60008301856114cf565b611ce960208301846114cf565b9392505050565b7f4e487b7100000000000000000000000000000000000000000000000000000000600052602260045260246000fd5b60006002820490506001821680611d3757607f821691505b602082108103611d4a57611d49611cf0565b5b50919050565b7f4f776e61626c653a206e6577206f776e657220697320746865207a65726f206160008201527f6464726573730000000000000000000000000000000000000000000000000000602082015250565b6000611dac6026836116ea565b9150611db782611d50565b604082019050919050565b60006020820190508181036000830152611ddb81611d9f565b9050919050565b7f566f7465727320726567697374726174696f6e206973206e6f74206f70656e2060008201527f7965740000000000000000000000000000000000000000000000000000000000602082015250565b6000611e3e6023836116ea565b9150611e4982611de2565b604082019050919050565b60006020820190508181036000830152611e6d81611e31565b9050919050565b7f416c726561647920726567697374657265640000000000000000000000000000600082015250565b6000611eaa6012836116ea565b9150611eb582611e74565b602082019050919050565b60006020820190508181036000830152611ed981611e9d565b9050919050565b7f4f776e61626c653a2063616c6c6572206973206e6f7420746865206f776e6572600082015250565b6000611f166020836116ea565b9150611f2182611ee0565b602082019050919050565b60006020820190508181036000830152611f4581611f09565b905091905056fea26469706673582212201652d94428d5858aa4326d3ce429090d2ad74bf7b02c16be473027451223066a64736f6c634300080e0033",
  "immutableReferences": {},
  "source": "// SPDX-License-Identifier: MIT\npragma solidity >=0.4.22 <0.9.0;\nimport \"../node_modules/@openzeppelin/contracts/access/Ownable.sol\";\n\n/**\n * @title A voting system on the blockchain\n *\n * @author Jean-Baptiste Fund -> telegram : @theblockdev - email : frenchcryptoagency@gmail.com\n *\n * @notice This contract is a simplified voting system divided into four parts :<br>\n *\n * @dev First, the owner registers the participants<br>\n * @dev Second, voters can register proposals<br>\n * @dev Then, the voters vote for their favorite proposal<br>\n * @dev Finally, the owner tallies the votes. <br>\n *<br>\n * @dev To separate these different phases, we use the enum of the contract, only the owner can change the enum. <br>\n *\n * @dev WARNING : In order to avoid a DOS flaw, we have added a proposal limit. Make sure that this limit matches the use you want to make with this voting system. \n */\n\ncontract Voting is Ownable {\n\n/**\n * @dev winningProposalID is the winning proposal of the vote \n */\n    uint public winningProposalID;\n    \n    struct Voter {\n        bool isRegistered;\n        bool hasVoted;\n        uint votedProposalId;\n    }\n\n    struct Proposal {\n        string description;\n        uint voteCount;\n    }\n\n\n    enum  WorkflowStatus {\n        RegisteringVoters,\n        ProposalsRegistrationStarted,\n        ProposalsRegistrationEnded,\n        VotingSessionStarted,\n        VotingSessionEnded,\n        VotesTallied\n    }\n\n/**\n * @dev workflowStatus is the status of voting \n */\n    WorkflowStatus public workflowStatus;\n    Proposal[] proposalsArray;\n    mapping (address => Voter) voters;\n\n    event VoterRegistered(address voterAddress); \n    event WorkflowStatusChange(WorkflowStatus previousStatus, WorkflowStatus newStatus);\n    event ProposalRegistered(uint proposalId);\n    event Voted (address voter, uint proposalId);\n\n    modifier onlyVoters() {\n        require(voters[msg.sender].isRegistered, \"You're not a voter\");\n        _;\n    }\n    \n/**\n * @dev Only voters can call getVoter\n * @param _addr is the address of the voter\n * @return voters is the struct of the voter\n */\n\n    function getVoter(address _addr) external onlyVoters view returns (Voter memory) {\n        return voters[_addr];\n    }\n    \n/**\n * @dev Only voters can call getOneProposal\n * @param _id is the id of the proposal\n * @return proposalsArray is the struct of the proposal\n */    \n    function getOneProposal(uint _id) external onlyVoters view returns (Proposal memory) {\n        return proposalsArray[_id];\n    }\n\n/**\n * @dev Only owner can add a voter\n * @param _addr is the address of the voter\n */\n\n    function addVoter(address _addr) external onlyOwner {\n        require(workflowStatus == WorkflowStatus.RegisteringVoters, 'Voters registration is not open yet');\n        require(voters[_addr].isRegistered != true, 'Already registered');\n    \n        voters[_addr].isRegistered = true;\n        emit VoterRegistered(_addr);\n    }\n \n/**\n * @dev Only voters can add a proposal <br> Warning before deploy, check the limit of proposalsArray.length\n * @param _desc is the description of the proposal\n */    \n\n    function addProposal(string memory _desc) external onlyVoters {\n        require(workflowStatus == WorkflowStatus.ProposalsRegistrationStarted, 'Proposals are not allowed yet');\n        require(keccak256(abi.encode(_desc)) != keccak256(abi.encode(\"\")), 'Vous ne pouvez pas ne rien proposer');\n        require(proposalsArray.length<100, \"Proposal's Array is complete\");\n\n        Proposal memory proposal;\n        proposal.description = _desc;\n        proposalsArray.push(proposal);\n        emit ProposalRegistered(proposalsArray.length-1);\n    }\n\n/**\n * @dev Only voters can set a vote\n * @param _id is the id of the proposal\n */ \n\n    function setVote( uint _id) external onlyVoters {\n        require(workflowStatus == WorkflowStatus.VotingSessionStarted, 'Voting session havent started yet');\n        require(voters[msg.sender].hasVoted != true, 'You have already voted');\n        require(_id < proposalsArray.length, 'Proposal not found');\n\n        voters[msg.sender].votedProposalId = _id;\n        voters[msg.sender].hasVoted = true;\n        proposalsArray[_id].voteCount++;\n\n        emit Voted(msg.sender, _id);\n    }\n\n/**\n * @dev Only owner can change the state\n */    \n\n    function changeState() external onlyOwner {                                \n        if (workflowStatus==WorkflowStatus.VotesTallied){\n            workflowStatus=WorkflowStatus(0);\n        }\n        else workflowStatus=WorkflowStatus(uint(workflowStatus)+1);   \n    \n        if (workflowStatus==WorkflowStatus.RegisteringVoters) {               \n            emit WorkflowStatusChange(WorkflowStatus(5),WorkflowStatus(0));\n        }\n        else {\n            emit WorkflowStatusChange(WorkflowStatus (uint (workflowStatus)-1), WorkflowStatus(uint(workflowStatus)));\n            }\n    }\n\n/**\n * @dev Only owner can tally the votes\n */\n\n   function tallyVotes() external onlyOwner {\n       require(workflowStatus == WorkflowStatus.VotingSessionEnded, \"Current status is not voting session ended\");\n       uint _winningProposalId;\n      for (uint256 p = 0; p < proposalsArray.length; p++) {\n           if (proposalsArray[p].voteCount > proposalsArray[_winningProposalId].voteCount) {\n               _winningProposalId = p;\n          }\n       }\n       winningProposalID = _winningProposalId;\n    }\n}",
  "sourcePath": "/home/jb/Projets/Alyra/Devoirs/Dapp/truffle/contracts/Voting.sol",
  "compiler": {
    "name": "solc",
    "version": "0.8.14+commit.80d49f37.Emscripten.clang"
  },
  "schemaVersion": "3.4.8",
  "updatedAt": "2022-10-07T14:39:42.233Z",
  "networkType": "ethereum",
  "devdoc": {
    "author": "Jean-Baptiste Fund -> telegram : @theblockdev - email : frenchcryptoagency@gmail.com",
    "details": "First, the owner registers the participants<br>Second, voters can register proposals<br>Then, the voters vote for their favorite proposal<br>Finally, the owner tallies the votes. <br> <br>To separate these different phases, we use the enum of the contract, only the owner can change the enum. <br>WARNING : In order to avoid a DOS flaw, we have added a proposal limit. Make sure that this limit matches the use you want to make with this voting system. ",
    "kind": "dev",
    "methods": {
      "addProposal(string)": {
        "details": "Only voters can add a proposal <br> Warning before deploy, check the limit of proposalsArray.length",
        "params": {
          "_desc": "is the description of the proposal"
        }
      },
      "addVoter(address)": {
        "details": "Only owner can add a voter",
        "params": {
          "_addr": "is the address of the voter"
        }
      },
      "changeState()": {
        "details": "Only owner can change the state"
      },
      "getOneProposal(uint256)": {
        "details": "Only voters can call getOneProposal",
        "params": {
          "_id": "is the id of the proposal"
        },
        "returns": {
          "_0": "proposalsArray is the struct of the proposal"
        }
      },
      "getVoter(address)": {
        "details": "Only voters can call getVoter",
        "params": {
          "_addr": "is the address of the voter"
        },
        "returns": {
          "_0": "voters is the struct of the voter"
        }
      },
      "owner()": {
        "details": "Returns the address of the current owner."
      },
      "renounceOwnership()": {
        "details": "Leaves the contract without owner. It will not be possible to call `onlyOwner` functions anymore. Can only be called by the current owner. NOTE: Renouncing ownership will leave the contract without an owner, thereby removing any functionality that is only available to the owner."
      },
      "setVote(uint256)": {
        "details": "Only voters can set a vote",
        "params": {
          "_id": "is the id of the proposal"
        }
      },
      "tallyVotes()": {
        "details": "Only owner can tally the votes"
      },
      "transferOwnership(address)": {
        "details": "Transfers ownership of the contract to a new account (`newOwner`). Can only be called by the current owner."
      }
    },
    "stateVariables": {
      "winningProposalID": {
        "details": "winningProposalID is the winning proposal of the vote "
      },
      "workflowStatus": {
        "details": "workflowStatus is the status of voting "
      }
    },
    "title": "A voting system on the blockchain",
    "version": 1
  },
  "userdoc": {
    "kind": "user",
    "methods": {},
    "notice": "This contract is a simplified voting system divided into four parts :<br>",
    "version": 1
  }
}